{
  "contractName": "Xcoin",
  "abi": [
    {
      "inputs": [],
      "payable": false,
      "stateMutability": "nonpayable",
      "type": "constructor"
    },
    {
      "constant": true,
      "inputs": [],
      "name": "getBalance",
      "outputs": [
        {
          "internalType": "int256",
          "name": "",
          "type": "int256"
        }
      ],
      "payable": false,
      "stateMutability": "view",
      "type": "function"
    },
    {
      "constant": false,
      "inputs": [
        {
          "internalType": "int256",
          "name": "amount",
          "type": "int256"
        }
      ],
      "name": "depositBalance",
      "outputs": [],
      "payable": false,
      "stateMutability": "nonpayable",
      "type": "function"
    },
    {
      "constant": false,
      "inputs": [
        {
          "internalType": "int256",
          "name": "amount",
          "type": "int256"
        }
      ],
      "name": "withdrawBalance",
      "outputs": [],
      "payable": false,
      "stateMutability": "nonpayable",
      "type": "function"
    }
  ],
  "bytecode": "0x608060405234801561001057600080fd5b5060008081905550610115806100276000396000f3fe6080604052348015600f57600080fd5b5060043610603c5760003560e01c806312065fe01460415780637c52caa314605d578063e51ed0a0146088575b600080fd5b604760b3565b6040518082815260200191505060405180910390f35b608660048036036020811015607157600080fd5b810190808035906020019092919050505060bc565b005b60b160048036036020811015609c57600080fd5b810190808035906020019092919050505060ce565b005b60008054905090565b80600080828254039250508190555050565b8060008082825401925050819055505056fea265627a7a72315820bfea78e5fd4e470cbb174970d1429d40d253ca8554f3bd5c3240d8fce649cf3864736f6c63430005100032",
  "source": "/**\n* @author mamadou_wone\n*/\npragma solidity >=0.4.22 <0.8.0;\n\ncontract Xcoin {\n    int balance;\n\n    constructor () public {\n        balance = 0;\n    }\n\n    // Create the getBalance function for retrieve the current balance\n    function getBalance() view public returns(int){\n        return balance;        \n    }\n\n    // Create deposit function\n    function depositBalance(int amount) public{\n        balance += amount;\n    }\n\n    function withdrawBalance(int amount) public{\n        balance -= amount;\n    }\n\n}",
  "sourcePath": "/home/mamadou/Bureau/Blockchain/euthereum-dap-started-project/contracts/Xcoin.sol",
  "compiler": {
    "name": "solc",
    "version": "0.5.16+commit.9c3226ce.Emscripten.clang"
  },
  "schemaVersion": "3.4.1",
  "updatedAt": "2021-12-16T17:39:05.886Z",
  "networkType": "ethereum",
  "devdoc": {
    "methods": {}
  },
  "userdoc": {
    "methods": {}
  }
}